{
  "_format": "hh-sol-artifact-1",
  "contractName": "NftMarket",
  "sourceName": "contracts/facets/NftMarket.sol",
  "abi": [
    {
      "anonymous": false,
      "inputs": [
        {
          "indexed": true,
          "internalType": "address",
          "name": "owner",
          "type": "address"
        },
        {
          "indexed": true,
          "internalType": "address",
          "name": "approved",
          "type": "address"
        },
        {
          "indexed": true,
          "internalType": "uint256",
          "name": "tokenId",
          "type": "uint256"
        }
      ],
      "name": "Approval",
      "type": "event"
    },
    {
      "anonymous": false,
      "inputs": [
        {
          "indexed": true,
          "internalType": "address",
          "name": "owner",
          "type": "address"
        },
        {
          "indexed": true,
          "internalType": "address",
          "name": "operator",
          "type": "address"
        },
        {
          "indexed": false,
          "internalType": "bool",
          "name": "approved",
          "type": "bool"
        }
      ],
      "name": "ApprovalForAll",
      "type": "event"
    },
    {
      "anonymous": false,
      "inputs": [
        {
          "indexed": false,
          "internalType": "uint256",
          "name": "newBossHp",
          "type": "uint256"
        },
        {
          "indexed": false,
          "internalType": "uint256",
          "name": "newPlayerHp",
          "type": "uint256"
        }
      ],
      "name": "AttackComplete",
      "type": "event"
    },
    {
      "anonymous": false,
      "inputs": [
        {
          "indexed": false,
          "internalType": "address",
          "name": "sender",
          "type": "address"
        },
        {
          "indexed": false,
          "internalType": "uint256",
          "name": "tokenId",
          "type": "uint256"
        },
        {
          "indexed": false,
          "internalType": "uint256",
          "name": "characterIndex",
          "type": "uint256"
        }
      ],
      "name": "CharacterNFTMinted",
      "type": "event"
    },
    {
      "anonymous": false,
      "inputs": [
        {
          "indexed": true,
          "internalType": "address",
          "name": "from",
          "type": "address"
        },
        {
          "indexed": true,
          "internalType": "address",
          "name": "to",
          "type": "address"
        },
        {
          "indexed": true,
          "internalType": "uint256",
          "name": "tokenId",
          "type": "uint256"
        }
      ],
      "name": "Transfer",
      "type": "event"
    },
    {
      "inputs": [
        {
          "internalType": "address",
          "name": "to",
          "type": "address"
        },
        {
          "internalType": "uint256",
          "name": "tokenId",
          "type": "uint256"
        }
      ],
      "name": "approve",
      "outputs": [],
      "stateMutability": "nonpayable",
      "type": "function"
    },
    {
      "inputs": [
        {
          "internalType": "uint256",
          "name": "tokenID",
          "type": "uint256"
        }
      ],
      "name": "attackBoss",
      "outputs": [],
      "stateMutability": "nonpayable",
      "type": "function"
    },
    {
      "inputs": [
        {
          "internalType": "address",
          "name": "owner",
          "type": "address"
        }
      ],
      "name": "balanceOf",
      "outputs": [
        {
          "internalType": "uint256",
          "name": "",
          "type": "uint256"
        }
      ],
      "stateMutability": "view",
      "type": "function"
    },
    {
      "inputs": [],
      "name": "checkIfUserHasNFT",
      "outputs": [
        {
          "components": [
            {
              "internalType": "uint256",
              "name": "characterIndex",
              "type": "uint256"
            },
            {
              "internalType": "string",
              "name": "name",
              "type": "string"
            },
            {
              "internalType": "string",
              "name": "imageURI",
              "type": "string"
            },
            {
              "internalType": "uint256",
              "name": "hp",
              "type": "uint256"
            },
            {
              "internalType": "uint256",
              "name": "maxHp",
              "type": "uint256"
            },
            {
              "internalType": "uint256",
              "name": "attackDamage",
              "type": "uint256"
            },
            {
              "internalType": "string",
              "name": "levels",
              "type": "string"
            }
          ],
          "internalType": "struct CharacterAttributes[]",
          "name": "",
          "type": "tuple[]"
        }
      ],
      "stateMutability": "view",
      "type": "function"
    },
    {
      "inputs": [
        {
          "internalType": "uint256",
          "name": "tokenId",
          "type": "uint256"
        }
      ],
      "name": "exists",
      "outputs": [
        {
          "internalType": "bool",
          "name": "",
          "type": "bool"
        }
      ],
      "stateMutability": "view",
      "type": "function"
    },
    {
      "inputs": [],
      "name": "getAllDefaultCharacters",
      "outputs": [
        {
          "components": [
            {
              "internalType": "uint256",
              "name": "characterIndex",
              "type": "uint256"
            },
            {
              "internalType": "string",
              "name": "name",
              "type": "string"
            },
            {
              "internalType": "string",
              "name": "imageURI",
              "type": "string"
            },
            {
              "internalType": "uint256",
              "name": "hp",
              "type": "uint256"
            },
            {
              "internalType": "uint256",
              "name": "maxHp",
              "type": "uint256"
            },
            {
              "internalType": "uint256",
              "name": "attackDamage",
              "type": "uint256"
            },
            {
              "internalType": "string",
              "name": "levels",
              "type": "string"
            }
          ],
          "internalType": "struct CharacterAttributes[]",
          "name": "",
          "type": "tuple[]"
        }
      ],
      "stateMutability": "view",
      "type": "function"
    },
    {
      "inputs": [
        {
          "internalType": "uint256",
          "name": "tokenId",
          "type": "uint256"
        }
      ],
      "name": "getApproved",
      "outputs": [
        {
          "internalType": "address",
          "name": "",
          "type": "address"
        }
      ],
      "stateMutability": "view",
      "type": "function"
    },
    {
      "inputs": [],
      "name": "getBigBoss",
      "outputs": [
        {
          "components": [
            {
              "internalType": "string",
              "name": "name",
              "type": "string"
            },
            {
              "internalType": "string",
              "name": "imageURI",
              "type": "string"
            },
            {
              "internalType": "uint256",
              "name": "hp",
              "type": "uint256"
            },
            {
              "internalType": "uint256",
              "name": "maxHp",
              "type": "uint256"
            },
            {
              "internalType": "uint256",
              "name": "attackDamage",
              "type": "uint256"
            }
          ],
          "internalType": "struct BigBoss",
          "name": "",
          "type": "tuple"
        }
      ],
      "stateMutability": "view",
      "type": "function"
    },
    {
      "inputs": [
        {
          "internalType": "address",
          "name": "owner",
          "type": "address"
        },
        {
          "internalType": "address",
          "name": "operator",
          "type": "address"
        }
      ],
      "name": "isApprovedForAll",
      "outputs": [
        {
          "internalType": "bool",
          "name": "",
          "type": "bool"
        }
      ],
      "stateMutability": "view",
      "type": "function"
    },
    {
      "inputs": [
        {
          "internalType": "uint256",
          "name": "_characterIndex",
          "type": "uint256"
        }
      ],
      "name": "mintCharacterNFT",
      "outputs": [],
      "stateMutability": "payable",
      "type": "function"
    },
    {
      "inputs": [
        {
          "internalType": "uint256",
          "name": "tokenID",
          "type": "uint256"
        }
      ],
      "name": "nftHolderAttributes",
      "outputs": [
        {
          "components": [
            {
              "internalType": "uint256",
              "name": "characterIndex",
              "type": "uint256"
            },
            {
              "internalType": "string",
              "name": "name",
              "type": "string"
            },
            {
              "internalType": "string",
              "name": "imageURI",
              "type": "string"
            },
            {
              "internalType": "uint256",
              "name": "hp",
              "type": "uint256"
            },
            {
              "internalType": "uint256",
              "name": "maxHp",
              "type": "uint256"
            },
            {
              "internalType": "uint256",
              "name": "attackDamage",
              "type": "uint256"
            },
            {
              "internalType": "string",
              "name": "levels",
              "type": "string"
            }
          ],
          "internalType": "struct CharacterAttributes",
          "name": "",
          "type": "tuple"
        }
      ],
      "stateMutability": "view",
      "type": "function"
    },
    {
      "inputs": [
        {
          "internalType": "address",
          "name": "user",
          "type": "address"
        }
      ],
      "name": "nftHolders",
      "outputs": [
        {
          "internalType": "uint256[]",
          "name": "val",
          "type": "uint256[]"
        }
      ],
      "stateMutability": "view",
      "type": "function"
    },
    {
      "inputs": [
        {
          "internalType": "uint256",
          "name": "tokenId",
          "type": "uint256"
        }
      ],
      "name": "ownerOf",
      "outputs": [
        {
          "internalType": "address",
          "name": "",
          "type": "address"
        }
      ],
      "stateMutability": "view",
      "type": "function"
    },
    {
      "inputs": [
        {
          "internalType": "address",
          "name": "from",
          "type": "address"
        },
        {
          "internalType": "address",
          "name": "to",
          "type": "address"
        },
        {
          "internalType": "uint256",
          "name": "tokenId",
          "type": "uint256"
        }
      ],
      "name": "safeTransferFrom",
      "outputs": [],
      "stateMutability": "nonpayable",
      "type": "function"
    },
    {
      "inputs": [
        {
          "internalType": "address",
          "name": "from",
          "type": "address"
        },
        {
          "internalType": "address",
          "name": "to",
          "type": "address"
        },
        {
          "internalType": "uint256",
          "name": "tokenId",
          "type": "uint256"
        },
        {
          "internalType": "bytes",
          "name": "_data",
          "type": "bytes"
        }
      ],
      "name": "safeTransferFrom",
      "outputs": [],
      "stateMutability": "nonpayable",
      "type": "function"
    },
    {
      "inputs": [
        {
          "internalType": "address",
          "name": "operator",
          "type": "address"
        },
        {
          "internalType": "bool",
          "name": "approved",
          "type": "bool"
        }
      ],
      "name": "setApprovalForAll",
      "outputs": [],
      "stateMutability": "nonpayable",
      "type": "function"
    },
    {
      "inputs": [
        {
          "internalType": "bytes4",
          "name": "interfaceId",
          "type": "bytes4"
        }
      ],
      "name": "supportsInterface",
      "outputs": [
        {
          "internalType": "bool",
          "name": "",
          "type": "bool"
        }
      ],
      "stateMutability": "view",
      "type": "function"
    },
    {
      "inputs": [
        {
          "internalType": "uint256",
          "name": "index",
          "type": "uint256"
        }
      ],
      "name": "tokenByIndex",
      "outputs": [
        {
          "internalType": "uint256",
          "name": "",
          "type": "uint256"
        }
      ],
      "stateMutability": "view",
      "type": "function"
    },
    {
      "inputs": [
        {
          "internalType": "address",
          "name": "owner",
          "type": "address"
        },
        {
          "internalType": "uint256",
          "name": "index",
          "type": "uint256"
        }
      ],
      "name": "tokenOfOwnerByIndex",
      "outputs": [
        {
          "internalType": "uint256",
          "name": "",
          "type": "uint256"
        }
      ],
      "stateMutability": "view",
      "type": "function"
    },
    {
      "inputs": [
        {
          "internalType": "uint256",
          "name": "_tokenId",
          "type": "uint256"
        }
      ],
      "name": "tokenURI",
      "outputs": [
        {
          "internalType": "string",
          "name": "",
          "type": "string"
        }
      ],
      "stateMutability": "view",
      "type": "function"
    },
    {
      "inputs": [],
      "name": "totalSupply",
      "outputs": [
        {
          "internalType": "uint256",
          "name": "",
          "type": "uint256"
        }
      ],
      "stateMutability": "view",
      "type": "function"
    },
    {
      "inputs": [],
      "name": "totalTokens",
      "outputs": [
        {
          "internalType": "uint256",
          "name": "val",
          "type": "uint256"
        }
      ],
      "stateMutability": "view",
      "type": "function"
    },
    {
      "inputs": [
        {
          "internalType": "address",
          "name": "from",
          "type": "address"
        },
        {
          "internalType": "address",
          "name": "to",
          "type": "address"
        },
        {
          "internalType": "uint256",
          "name": "tokenId",
          "type": "uint256"
        }
      ],
      "name": "transferFrom",
      "outputs": [],
      "stateMutability": "nonpayable",
      "type": "function"
    },
    {
      "inputs": [
        {
          "internalType": "uint256",
          "name": "_fee",
          "type": "uint256"
        }
      ],
      "name": "updateFee",
      "outputs": [],
      "stateMutability": "nonpayable",
      "type": "function"
    },
    {
      "inputs": [],
      "name": "withdraw",
      "outputs": [],
      "stateMutability": "nonpayable",
      "type": "function"
    }
  ],
  "bytecode": "0x608060405234801561001057600080fd5b50615a7180620000216000396000f3fe6080604052600436106101665760003560e01c80636352211e116100d1578063a22cb4651161008a578063c87b56dd11610064578063c87b56dd14610572578063c8cf27f4146105af578063e985e9c5146105da578063f8b81ef71461061757610166565b8063a22cb465146104f5578063b88d4fde1461051e578063b953084e1461054757610166565b80636352211e146103ad57806370a08231146103ea5780637df124a1146104275780637e1c0c09146104645780639012c4a81461048f57806398da4c95146104b857610166565b806323b872dd1161012357806323b872dd1461028d5780632f745c59146102b65780633ccfd60b146102f357806342842e0e1461030a5780634f558e79146103335780634f6ccce71461037057610166565b806301ffc9a71461016b5780630619f932146101a85780630665f961146101d1578063081812fc146101fc578063095ea7b31461023957806318160ddd14610262575b600080fd5b34801561017757600080fd5b50610192600480360381019061018d9190613e0d565b610633565b60405161019f9190614911565b60405180910390f35b3480156101b457600080fd5b506101cf60048036038101906101ca9190613e5f565b6108b5565b005b3480156101dd57600080fd5b506101e6610adb565b6040516101f39190614c2e565b60405180910390f35b34801561020857600080fd5b50610223600480360381019061021e9190613e5f565b610c3a565b604051610230919061482f565b60405180910390f35b34801561024557600080fd5b50610260600480360381019061025b9190613dd1565b610cc2565b005b34801561026e57600080fd5b50610277610e3d565b6040516102849190614c72565b60405180910390f35b34801561029957600080fd5b506102b460048036038101906102af9190613ccb565b610e4c565b005b3480156102c257600080fd5b506102dd60048036038101906102d89190613dd1565b610f07565b6040516102ea9190614c72565b60405180910390f35b3480156102ff57600080fd5b50610308610f1b565b005b34801561031657600080fd5b50610331600480360381019061032c9190613ccb565b610fd2565b005b34801561033f57600080fd5b5061035a60048036038101906103559190613e5f565b610ff2565b6040516103679190614911565b60405180910390f35b34801561037c57600080fd5b5061039760048036038101906103929190613e5f565b611004565b6040516103a49190614c72565b60405180910390f35b3480156103b957600080fd5b506103d460048036038101906103cf9190613e5f565b61109e565b6040516103e1919061482f565b60405180910390f35b3480156103f657600080fd5b50610411600480360381019061040c9190613c66565b6110b0565b60405161041e9190614c72565b60405180910390f35b34801561043357600080fd5b5061044e60048036038101906104499190613c66565b6110c2565b60405161045b91906148ef565b60405180910390f35b34801561047057600080fd5b506104796110d4565b6040516104869190614c72565b60405180910390f35b34801561049b57600080fd5b506104b660048036038101906104b19190613e5f565b6110e0565b005b3480156104c457600080fd5b506104df60048036038101906104da9190613e5f565b6110f5565b6040516104ec9190614c50565b60405180910390f35b34801561050157600080fd5b5061051c60048036038101906105179190613d95565b61110d565b005b34801561052a57600080fd5b5061054560048036038101906105409190613d1a565b611291565b005b34801561055357600080fd5b5061055c61134e565b60405161056991906148cd565b60405180910390f35b34801561057e57600080fd5b5061059960048036038101906105949190613e5f565b61158e565b6040516105a6919061492c565b60405180910390f35b3480156105bb57600080fd5b506105c4611843565b6040516105d191906148cd565b60405180910390f35b3480156105e657600080fd5b5061060160048036038101906105fc9190613c8f565b611b93565b60405161060e9190614911565b60405180910390f35b610631600480360381019061062c9190613e5f565b611c29565b005b60007f780e9d63000000000000000000000000000000000000000000000000000000007bffffffffffffffffffffffffffffffffffffffffffffffffffffffff1916827bffffffffffffffffffffffffffffffffffffffffffffffffffffffff191614806106fe57507f80ac58cd000000000000000000000000000000000000000000000000000000007bffffffffffffffffffffffffffffffffffffffffffffffffffffffff1916827bffffffffffffffffffffffffffffffffffffffffffffffffffffffff1916145b8061076657507f5b5e139f000000000000000000000000000000000000000000000000000000007bffffffffffffffffffffffffffffffffffffffffffffffffffffffff1916827bffffffffffffffffffffffffffffffffffffffffffffffffffffffff1916145b806107ce57507f1f931c1c000000000000000000000000000000000000000000000000000000007bffffffffffffffffffffffffffffffffffffffffffffffffffffffff1916827bffffffffffffffffffffffffffffffffffffffffffffffffffffffff1916145b8061083657507f48e2b093000000000000000000000000000000000000000000000000000000007bffffffffffffffffffffffffffffffffffffffffffffffffffffffff1916827bffffffffffffffffffffffffffffffffffffffffffffffffffffffff1916145b8061089e57507f7f5828d0000000000000000000000000000000000000000000000000000000007bffffffffffffffffffffffffffffffffffffffffffffffffffffffff1916827bffffffffffffffffffffffffffffffffffffffffffffffffffffffff1916145b806108ae57506108ad826120eb565b5b9050919050565b3373ffffffffffffffffffffffffffffffffffffffff166000600401600083815260200190815260200160002060009054906101000a900473ffffffffffffffffffffffffffffffffffffffff1673ffffffffffffffffffffffffffffffffffffffff1614610959576040517f08c379a000000000000000000000000000000000000000000000000000000000815260040161095090614c0e565b60405180910390fd5b6000806010016000838152602001908152602001600020905060008160030154116109b9576040517f08c379a00000000000000000000000000000000000000000000000000000000081526004016109b090614ace565b60405180910390fd5b6000806011016002015411610a03576040517f08c379a00000000000000000000000000000000000000000000000000000000081526004016109fa906149ae565b60405180910390fd5b80600501546000601101600201541015610a295760008060110160020181905550610a4e565b8060050154600060110160020154610a419190614ebe565b6000601101600201819055505b60006011016004015481600301541015610a715760008160030181905550610a92565b6000601101600401548160030154610a899190614ebe565b81600301819055505b7f838ab28464562786a6c4ab2311964b82fa60bd9b14aa7e856af1f3f18d41a4146000601101600201548260030154604051610acf929190614c8d565b60405180910390a15050565b610ae3613a86565b60006011016040518060a0016040529081600082018054610b0390614fa8565b80601f0160208091040260200160405190810160405280929190818152602001828054610b2f90614fa8565b8015610b7c5780601f10610b5157610100808354040283529160200191610b7c565b820191906000526020600020905b815481529060010190602001808311610b5f57829003601f168201915b50505050508152602001600182018054610b9590614fa8565b80601f0160208091040260200160405190810160405280929190818152602001828054610bc190614fa8565b8015610c0e5780601f10610be357610100808354040283529160200191610c0e565b820191906000526020600020905b815481529060010190602001808311610bf157829003601f168201915b505050505081526020016002820154815260200160038201548152602001600482015481525050905090565b6000610c4582612155565b610c84576040517f08c379a0000000000000000000000000000000000000000000000000000000008152600401610c7b90614b0e565b60405180910390fd5b6000600601600083815260200190815260200160002060009054906101000a900473ffffffffffffffffffffffffffffffffffffffff169050919050565b6000610ccd8261109e565b90508073ffffffffffffffffffffffffffffffffffffffff168373ffffffffffffffffffffffffffffffffffffffff161415610d3e576040517f08c379a0000000000000000000000000000000000000000000000000000000008152600401610d3590614b4e565b60405180910390fd5b8073ffffffffffffffffffffffffffffffffffffffff16610d5d6121c4565b73ffffffffffffffffffffffffffffffffffffffff161480610d8c5750610d8b81610d866121c4565b611b93565b5b610dcb576040517f08c379a0000000000000000000000000000000000000000000000000000000008152600401610dc290614a6e565b60405180910390fd5b610dd583836121cc565b818373ffffffffffffffffffffffffffffffffffffffff16610df68461109e565b73ffffffffffffffffffffffffffffffffffffffff167f8c5be1e5ebec7d5bd14f71427d1e84f3dd0314c0f7b2291e5b200ac8c7c3b92560405160405180910390a4505050565b600080600a0180549050905090565b610e5d610e576121c4565b82612231565b610e9c576040517f08c379a0000000000000000000000000000000000000000000000000000000008152600401610e9390614bae565b60405180910390fd5b610ea783838361230f565b808273ffffffffffffffffffffffffffffffffffffffff168473ffffffffffffffffffffffffffffffffffffffff167fddf252ad1be2c89b69c2b068fc378daa952ba7f163c4a11628f55a4df523b3ef60405160405180910390a4505050565b6000610f138383612523565b905092915050565b610f236125d6565b60003373ffffffffffffffffffffffffffffffffffffffff1647604051610f499061481a565b60006040518083038185875af1925050503d8060008114610f86576040519150601f19603f3d011682016040523d82523d6000602084013e610f8b565b606091505b5050905080610fcf576040517f08c379a0000000000000000000000000000000000000000000000000000000008152600401610fc690614b8e565b60405180910390fd5b50565b610fed83838360405180602001604052806000815250611291565b505050565b6000610ffd82612155565b9050919050565b600061100e610e3d565b821061104f576040517f08c379a000000000000000000000000000000000000000000000000000000000815260040161104690614bee565b60405180910390fd5b6000600a01828154811061108c577f4e487b7100000000000000000000000000000000000000000000000000000000600052603260045260246000fd5b90600052602060002001549050919050565b60006110a982612671565b9050919050565b60006110bb82612732565b9050919050565b60606110cd826127f9565b9050919050565b600080600d0154905090565b6110e86125d6565b8060006016018190555050565b6110fd613ab5565b61110682612975565b9050919050565b6111156121c4565b73ffffffffffffffffffffffffffffffffffffffff168273ffffffffffffffffffffffffffffffffffffffff161415611183576040517f08c379a000000000000000000000000000000000000000000000000000000000815260040161117a90614a0e565b60405180910390fd5b80600060070160006111936121c4565b73ffffffffffffffffffffffffffffffffffffffff1673ffffffffffffffffffffffffffffffffffffffff16815260200190815260200160002060008473ffffffffffffffffffffffffffffffffffffffff1673ffffffffffffffffffffffffffffffffffffffff16815260200190815260200160002060006101000a81548160ff0219169083151502179055508173ffffffffffffffffffffffffffffffffffffffff166112406121c4565b73ffffffffffffffffffffffffffffffffffffffff167f17307eab39ab6107e8899845ad3d59bd9653f200f220920489ca2b5937696c31836040516112859190614911565b60405180910390a35050565b6112a261129c6121c4565b83612231565b6112e1576040517f08c379a00000000000000000000000000000000000000000000000000000000081526004016112d890614bae565b60405180910390fd5b6112ed84848484612b8f565b818373ffffffffffffffffffffffffffffffffffffffff168573ffffffffffffffffffffffffffffffffffffffff167fddf252ad1be2c89b69c2b068fc378daa952ba7f163c4a11628f55a4df523b3ef60405160405180910390a450505050565b60606000600f01805480602002602001604051908101604052809291908181526020016000905b8282101561158557838290600052602060002090600702016040518060e0016040529081600082015481526020016001820180546113b290614fa8565b80601f01602080910402602001604051908101604052809291908181526020018280546113de90614fa8565b801561142b5780601f106114005761010080835404028352916020019161142b565b820191906000526020600020905b81548152906001019060200180831161140e57829003601f168201915b5050505050815260200160028201805461144490614fa8565b80601f016020809104026020016040519081016040528092919081815260200182805461147090614fa8565b80156114bd5780601f10611492576101008083540402835291602001916114bd565b820191906000526020600020905b8154815290600101906020018083116114a057829003601f168201915b505050505081526020016003820154815260200160048201548152602001600582015481526020016006820180546114f490614fa8565b80601f016020809104026020016040519081016040528092919081815260200182805461152090614fa8565b801561156d5780601f106115425761010080835404028352916020019161156d565b820191906000526020600020905b81548152906001019060200180831161155057829003601f168201915b50505050508152505081526020019060010190611375565b50505050905090565b606060008060100160008481526020019081526020016000206040518060e0016040529081600082015481526020016001820180546115cc90614fa8565b80601f01602080910402602001604051908101604052809291908181526020018280546115f890614fa8565b80156116455780601f1061161a57610100808354040283529160200191611645565b820191906000526020600020905b81548152906001019060200180831161162857829003601f168201915b5050505050815260200160028201805461165e90614fa8565b80601f016020809104026020016040519081016040528092919081815260200182805461168a90614fa8565b80156116d75780601f106116ac576101008083540402835291602001916116d7565b820191906000526020600020905b8154815290600101906020018083116116ba57829003601f168201915b5050505050815260200160038201548152602001600482015481526020016005820154815260200160068201805461170e90614fa8565b80601f016020809104026020016040519081016040528092919081815260200182805461173a90614fa8565b80156117875780601f1061175c57610100808354040283529160200191611787565b820191906000526020600020905b81548152906001019060200180831161176a57829003601f168201915b505050505081525050905060006117a18260600151612beb565b905060006117b28360800151612beb565b905060006117c38460a00151612beb565b9050600061180f85602001516117d889612beb565b87604001518787878b60c001516040516020016117fb979695949392919061473b565b604051602081830303815290604052612d98565b905060008160405160200161182491906147f8565b6040516020818303038152906040529050809650505050505050919050565b60606000611850336127f9565b90506000815114156118685760608092505050611b90565b6000815167ffffffffffffffff8111156118ab577f4e487b7100000000000000000000000000000000000000000000000000000000600052604160045260246000fd5b6040519080825280602002602001820160405280156118e457816020015b6118d1613ab5565b8152602001906001900390816118c95790505b50905060005b8251811015611b895760006010016000848381518110611933577f4e487b7100000000000000000000000000000000000000000000000000000000600052603260045260246000fd5b602002602001015181526020019081526020016000206040518060e00160405290816000820154815260200160018201805461196e90614fa8565b80601f016020809104026020016040519081016040528092919081815260200182805461199a90614fa8565b80156119e75780601f106119bc576101008083540402835291602001916119e7565b820191906000526020600020905b8154815290600101906020018083116119ca57829003601f168201915b50505050508152602001600282018054611a0090614fa8565b80601f0160208091040260200160405190810160405280929190818152602001828054611a2c90614fa8565b8015611a795780601f10611a4e57610100808354040283529160200191611a79565b820191906000526020600020905b815481529060010190602001808311611a5c57829003601f168201915b50505050508152602001600382015481526020016004820154815260200160058201548152602001600682018054611ab090614fa8565b80601f0160208091040260200160405190810160405280929190818152602001828054611adc90614fa8565b8015611b295780601f10611afe57610100808354040283529160200191611b29565b820191906000526020600020905b815481529060010190602001808311611b0c57829003601f168201915b505050505081525050828281518110611b6b577f4e487b7100000000000000000000000000000000000000000000000000000000600052603260045260246000fd5b60200260200101819052508080611b819061500b565b9150506118ea565b5080925050505b90565b60008060070160008473ffffffffffffffffffffffffffffffffffffffff1673ffffffffffffffffffffffffffffffffffffffff16815260200190815260200160002060008373ffffffffffffffffffffffffffffffffffffffff1673ffffffffffffffffffffffffffffffffffffffff16815260200190815260200160002060009054906101000a900460ff16905092915050565b600060160154341015611c3b57600080fd5b600080600e01549050611c4e3382612f56565b6040518060e001604052808381526020016000600f018481548110611c9c577f4e487b7100000000000000000000000000000000000000000000000000000000600052603260045260246000fd5b90600052602060002090600702016001018054611cb890614fa8565b80601f0160208091040260200160405190810160405280929190818152602001828054611ce490614fa8565b8015611d315780601f10611d0657610100808354040283529160200191611d31565b820191906000526020600020905b815481529060010190602001808311611d1457829003601f168201915b505050505081526020016000600f018481548110611d78577f4e487b7100000000000000000000000000000000000000000000000000000000600052603260045260246000fd5b90600052602060002090600702016002018054611d9490614fa8565b80601f0160208091040260200160405190810160405280929190818152602001828054611dc090614fa8565b8015611e0d5780601f10611de257610100808354040283529160200191611e0d565b820191906000526020600020905b815481529060010190602001808311611df057829003601f168201915b505050505081526020016000600f018481548110611e54577f4e487b7100000000000000000000000000000000000000000000000000000000600052603260045260246000fd5b90600052602060002090600702016003015481526020016000600f018481548110611ea8577f4e487b7100000000000000000000000000000000000000000000000000000000600052603260045260246000fd5b90600052602060002090600702016003015481526020016000600f018481548110611efc577f4e487b7100000000000000000000000000000000000000000000000000000000600052603260045260246000fd5b90600052602060002090600702016005015481526020016000600f018481548110611f50577f4e487b7100000000000000000000000000000000000000000000000000000000600052603260045260246000fd5b90600052602060002090600702016006018054611f6c90614fa8565b80601f0160208091040260200160405190810160405280929190818152602001828054611f9890614fa8565b8015611fe55780601f10611fba57610100808354040283529160200191611fe5565b820191906000526020600020905b815481529060010190602001808311611fc857829003601f168201915b505050505081525060006010016000838152602001908152602001600020600082015181600001556020820151816001019080519060200190612029929190613af2565b506040820151816002019080519060200190612046929190613af2565b50606082015181600301556080820151816004015560a0820151816005015560c0820151816006019080519060200190612081929190613af2565b50905050806000600d018190555060016000600e0160008282546120a59190614ddd565b925050819055507f4bc303fd457a97b4691b9af582ce71868a3d258638c8d4f8c60988a0f0bfb8cd3382846040516120df93929190614896565b60405180910390a15050565b60007f01ffc9a7000000000000000000000000000000000000000000000000000000007bffffffffffffffffffffffffffffffffffffffffffffffffffffffff1916827bffffffffffffffffffffffffffffffffffffffffffffffffffffffff1916149050919050565b60008073ffffffffffffffffffffffffffffffffffffffff166000600401600084815260200190815260200160002060009054906101000a900473ffffffffffffffffffffffffffffffffffffffff1673ffffffffffffffffffffffffffffffffffffffff1614159050919050565b600033905090565b60006121d6612f74565b90508281600601600084815260200190815260200160002060006101000a81548173ffffffffffffffffffffffffffffffffffffffff021916908373ffffffffffffffffffffffffffffffffffffffff160217905550505050565b600061223c82612155565b61227b576040517f08c379a000000000000000000000000000000000000000000000000000000000815260040161227290614a4e565b60405180910390fd5b60006122868361109e565b90508073ffffffffffffffffffffffffffffffffffffffff168473ffffffffffffffffffffffffffffffffffffffff1614806122f557508373ffffffffffffffffffffffffffffffffffffffff166122dd84610c3a565b73ffffffffffffffffffffffffffffffffffffffff16145b8061230657506123058185611b93565b5b91505092915050565b8273ffffffffffffffffffffffffffffffffffffffff1661232f82612671565b73ffffffffffffffffffffffffffffffffffffffff1614612385576040517f08c379a000000000000000000000000000000000000000000000000000000000815260040161237c90614b2e565b60405180910390fd5b600073ffffffffffffffffffffffffffffffffffffffff168273ffffffffffffffffffffffffffffffffffffffff1614156123f5576040517f08c379a00000000000000000000000000000000000000000000000000000000081526004016123ec906149ee565b60405180910390fd5b60006123ff612f74565b905061240c848484612f79565b6124176000836121cc565b60018160050160008673ffffffffffffffffffffffffffffffffffffffff1673ffffffffffffffffffffffffffffffffffffffff16815260200190815260200160002060008282546124699190614ebe565b9250508190555060018160050160008573ffffffffffffffffffffffffffffffffffffffff1673ffffffffffffffffffffffffffffffffffffffff16815260200190815260200160002060008282546124c29190614ddd565b925050819055508281600401600084815260200190815260200160002060006101000a81548173ffffffffffffffffffffffffffffffffffffffff021916908373ffffffffffffffffffffffffffffffffffffffff16021790555050505050565b60008061252e612f74565b905061253984612732565b831061257a576040517f08c379a00000000000000000000000000000000000000000000000000000000081526004016125719061496e565b60405180910390fd5b8060080160008573ffffffffffffffffffffffffffffffffffffffff1673ffffffffffffffffffffffffffffffffffffffff16815260200190815260200160002060008481526020019081526020016000205491505092915050565b6125de613101565b60030160009054906101000a900473ffffffffffffffffffffffffffffffffffffffff1673ffffffffffffffffffffffffffffffffffffffff163373ffffffffffffffffffffffffffffffffffffffff161461266f576040517f08c379a00000000000000000000000000000000000000000000000000000000081526004016126669061494e565b60405180910390fd5b565b60008061267c612f74565b9050600081600401600085815260200190815260200160002060009054906101000a900473ffffffffffffffffffffffffffffffffffffffff169050600073ffffffffffffffffffffffffffffffffffffffff168173ffffffffffffffffffffffffffffffffffffffff161415612728576040517f08c379a000000000000000000000000000000000000000000000000000000000815260040161271f90614aae565b60405180910390fd5b8092505050919050565b60008061273d612f74565b9050600073ffffffffffffffffffffffffffffffffffffffff168373ffffffffffffffffffffffffffffffffffffffff1614156127af576040517f08c379a00000000000000000000000000000000000000000000000000000000081526004016127a690614a8e565b60405180910390fd5b8060050160008473ffffffffffffffffffffffffffffffffffffffff1673ffffffffffffffffffffffffffffffffffffffff16815260200190815260200160002054915050919050565b6060600061280683612732565b9050600081141561288957600067ffffffffffffffff811115612852577f4e487b7100000000000000000000000000000000000000000000000000000000600052604160045260246000fd5b6040519080825280602002602001820160405280156128805781602001602082028036833780820191505090505b50915050612970565b60008167ffffffffffffffff8111156128cb577f4e487b7100000000000000000000000000000000000000000000000000000000600052604160045260246000fd5b6040519080825280602002602001820160405280156128f95781602001602082028036833780820191505090505b50905060005b82811015612969576129118582612523565b82828151811061294a577f4e487b7100000000000000000000000000000000000000000000000000000000600052603260045260246000fd5b60200260200101818152505080806129619061500b565b9150506128ff565b8193505050505b919050565b61297d613ab5565b6000612987612f74565b90508060100160008481526020019081526020016000206040518060e0016040529081600082015481526020016001820180546129c390614fa8565b80601f01602080910402602001604051908101604052809291908181526020018280546129ef90614fa8565b8015612a3c5780601f10612a1157610100808354040283529160200191612a3c565b820191906000526020600020905b815481529060010190602001808311612a1f57829003601f168201915b50505050508152602001600282018054612a5590614fa8565b80601f0160208091040260200160405190810160405280929190818152602001828054612a8190614fa8565b8015612ace5780601f10612aa357610100808354040283529160200191612ace565b820191906000526020600020905b815481529060010190602001808311612ab157829003601f168201915b50505050508152602001600382015481526020016004820154815260200160058201548152602001600682018054612b0590614fa8565b80601f0160208091040260200160405190810160405280929190818152602001828054612b3190614fa8565b8015612b7e5780601f10612b5357610100808354040283529160200191612b7e565b820191906000526020600020905b815481529060010190602001808311612b6157829003601f168201915b505050505081525050915050919050565b612b9a84848461230f565b612ba68484848461312e565b612be5576040517f08c379a0000000000000000000000000000000000000000000000000000000008152600401612bdc9061498e565b60405180910390fd5b50505050565b60606000821415612c33576040518060400160405280600181526020017f30000000000000000000000000000000000000000000000000000000000000008152509050612d93565b600082905060005b60008214612c65578080612c4e9061500b565b915050600a82612c5e9190614e33565b9150612c3b565b60008167ffffffffffffffff811115612ca7577f4e487b7100000000000000000000000000000000000000000000000000000000600052604160045260246000fd5b6040519080825280601f01601f191660200182016040528015612cd95781602001600182028036833780820191505090505b5090505b60008514612d8c57600182612cf29190614ebe565b9150600a85612d019190615054565b6030612d0d9190614ddd565b60f81b818381518110612d49577f4e487b7100000000000000000000000000000000000000000000000000000000600052603260045260246000fd5b60200101907effffffffffffffffffffffffffffffffffffffffffffffffffffffffffffff1916908160001a905350600a85612d859190614e33565b9450612cdd565b8093505050505b919050565b60606000825190506000811415612dc15760405180602001604052806000815250915050612f51565b60006003600283612dd29190614ddd565b612ddc9190614e33565b6004612de89190614e64565b90506000602082612df99190614ddd565b67ffffffffffffffff811115612e38577f4e487b7100000000000000000000000000000000000000000000000000000000600052604160045260246000fd5b6040519080825280601f01601f191660200182016040528015612e6a5781602001600182028036833780820191505090505b50905060006040518060600160405280604081526020016159fc604091399050600181016020830160005b86811015612f0e5760038101905062ffffff818a015116603f8160121c168401518060081b905060ff603f83600c1c1686015116810190508060081b905060ff603f8360061c1686015116810190508060081b905060ff603f831686015116810190508060e01b90508084526004840193505050612e95565b506003860660018114612f285760028114612f3857612f43565b613d3d60f01b6002830352612f43565b603d60f81b60018303525b508484525050819450505050505b919050565b612f708282604051806020016040528060008152506132a4565b5050565b600090565b600073ffffffffffffffffffffffffffffffffffffffff168373ffffffffffffffffffffffffffffffffffffffff161415612fbc57612fb7816132ff565b612ffb565b8173ffffffffffffffffffffffffffffffffffffffff168373ffffffffffffffffffffffffffffffffffffffff1614612ffa57612ff9838261335b565b5b5b600073ffffffffffffffffffffffffffffffffffffffff168273ffffffffffffffffffffffffffffffffffffffff16141561303e57613039816134e1565b61307d565b8273ffffffffffffffffffffffffffffffffffffffff168273ffffffffffffffffffffffffffffffffffffffff161461307c5761307b828261363f565b5b5b60006130876136cf565b905060008160000160008481526020019081526020016000209050600015158160040160149054906101000a900460ff161515146130fa576040517f08c379a00000000000000000000000000000000000000000000000000000000081526004016130f190614b6e565b60405180910390fd5b5050505050565b6000807fc8fcad8db84d3cc18b4c41d551ea0ee66dd599cde068d998e57d5e09332c131c90508091505090565b600061314f8473ffffffffffffffffffffffffffffffffffffffff166136fc565b61315c576001905061329c565b600061321c63150b7a0260e01b33888787604051602401613180949392919061484a565b604051602081830303815290604052907bffffffffffffffffffffffffffffffffffffffffffffffffffffffff19166020820180517bffffffffffffffffffffffffffffffffffffffffffffffffffffffff83818316178352505050506040518060600160405280603281526020016159ca603291398773ffffffffffffffffffffffffffffffffffffffff1661371f9092919063ffffffff16565b90506000818060200190518101906132349190613e36565b90507f150b7a02000000000000000000000000000000000000000000000000000000007bffffffffffffffffffffffffffffffffffffffffffffffffffffffff1916817bffffffffffffffffffffffffffffffffffffffffffffffffffffffff191614925050505b949350505050565b6132ae8383613737565b6132bb600084848461312e565b6132fa576040517f08c379a00000000000000000000000000000000000000000000000000000000081526004016132f19061498e565b60405180910390fd5b505050565b6000613309612f74565b905080600a018054905081600b0160008481526020019081526020016000208190555080600a018290806001815401808255809150506001900390600052602060002001600090919091909150555050565b6000613365612f74565b90506000600161337485612732565b61337e9190614ebe565b9050600082600901600085815260200190815260200160002054905081811461346b5760008360080160008773ffffffffffffffffffffffffffffffffffffffff1673ffffffffffffffffffffffffffffffffffffffff1681526020019081526020016000206000848152602001908152602001600020549050808460080160008873ffffffffffffffffffffffffffffffffffffffff1673ffffffffffffffffffffffffffffffffffffffff1681526020019081526020016000206000848152602001908152602001600020819055508184600901600083815260200190815260200160002081905550505b826009016000858152602001908152602001600020600090558260080160008673ffffffffffffffffffffffffffffffffffffffff1673ffffffffffffffffffffffffffffffffffffffff1681526020019081526020016000206000838152602001908152602001600020600090555050505050565b60006134eb612f74565b90506000600182600a01805490506135039190614ebe565b9050600082600b016000858152602001908152602001600020549050600083600a01838154811061355d577f4e487b7100000000000000000000000000000000000000000000000000000000600052603260045260246000fd5b906000526020600020015490508084600a0183815481106135a7577f4e487b7100000000000000000000000000000000000000000000000000000000600052603260045260246000fd5b90600052602060002001819055508184600b0160008381526020019081526020016000208190555083600b0160008681526020019081526020016000206000905583600a01805480613622577f4e487b7100000000000000000000000000000000000000000000000000000000600052603160045260246000fd5b600190038181906000526020600020016000905590555050505050565b600061364a83612732565b90506000613656612f74565b9050828160080160008673ffffffffffffffffffffffffffffffffffffffff1673ffffffffffffffffffffffffffffffffffffffff168152602001908152602001600020600084815260200190815260200160002081905550818160090160008581526020019081526020016000208190555050505050565b6000807f1ba4eed6a3ce5b6c92de70bb8706939ed735db547235eb399f9f132b1aab433c90508091505090565b6000808273ffffffffffffffffffffffffffffffffffffffff163b119050919050565b606061372e848460008561390b565b90509392505050565b600073ffffffffffffffffffffffffffffffffffffffff168273ffffffffffffffffffffffffffffffffffffffff1614156137a7576040517f08c379a000000000000000000000000000000000000000000000000000000000815260040161379e90614aee565b60405180910390fd5b6137b081612155565b156137f0576040517f08c379a00000000000000000000000000000000000000000000000000000000081526004016137e7906149ce565b60405180910390fd5b6137fc60008383612f79565b6001600060050160008473ffffffffffffffffffffffffffffffffffffffff1673ffffffffffffffffffffffffffffffffffffffff168152602001908152602001600020600082825461384f9190614ddd565b92505081905550816000600401600083815260200190815260200160002060006101000a81548173ffffffffffffffffffffffffffffffffffffffff021916908373ffffffffffffffffffffffffffffffffffffffff160217905550808273ffffffffffffffffffffffffffffffffffffffff16600073ffffffffffffffffffffffffffffffffffffffff167fddf252ad1be2c89b69c2b068fc378daa952ba7f163c4a11628f55a4df523b3ef60405160405180910390a45050565b606082471015613950576040517f08c379a000000000000000000000000000000000000000000000000000000000815260040161394790614a2e565b60405180910390fd5b613959856136fc565b613998576040517f08c379a000000000000000000000000000000000000000000000000000000000815260040161398f90614bce565b60405180910390fd5b6000808673ffffffffffffffffffffffffffffffffffffffff1685876040516139c19190614724565b60006040518083038185875af1925050503d80600081146139fe576040519150601f19603f3d011682016040523d82523d6000602084013e613a03565b606091505b5091509150613a13828286613a1f565b92505050949350505050565b60608315613a2f57829050613a7f565b600083511115613a425782518084602001fd5b816040517f08c379a0000000000000000000000000000000000000000000000000000000008152600401613a76919061492c565b60405180910390fd5b9392505050565b6040518060a0016040528060608152602001606081526020016000815260200160008152602001600081525090565b6040518060e00160405280600081526020016060815260200160608152602001600081526020016000815260200160008152602001606081525090565b828054613afe90614fa8565b90600052602060002090601f016020900481019282613b205760008555613b67565b82601f10613b3957805160ff1916838001178555613b67565b82800160010185558215613b67579182015b82811115613b66578251825591602001919060010190613b4b565b5b509050613b749190613b78565b5090565b5b80821115613b91576000816000905550600101613b79565b5090565b6000613ba8613ba384614cdb565b614cb6565b905082815260208101848484011115613bc057600080fd5b613bcb848285614f66565b509392505050565b600081359050613be28161596d565b92915050565b600081359050613bf781615984565b92915050565b600081359050613c0c8161599b565b92915050565b600081519050613c218161599b565b92915050565b600082601f830112613c3857600080fd5b8135613c48848260208601613b95565b91505092915050565b600081359050613c60816159b2565b92915050565b600060208284031215613c7857600080fd5b6000613c8684828501613bd3565b91505092915050565b60008060408385031215613ca257600080fd5b6000613cb085828601613bd3565b9250506020613cc185828601613bd3565b9150509250929050565b600080600060608486031215613ce057600080fd5b6000613cee86828701613bd3565b9350506020613cff86828701613bd3565b9250506040613d1086828701613c51565b9150509250925092565b60008060008060808587031215613d3057600080fd5b6000613d3e87828801613bd3565b9450506020613d4f87828801613bd3565b9350506040613d6087828801613c51565b925050606085013567ffffffffffffffff811115613d7d57600080fd5b613d8987828801613c27565b91505092959194509250565b60008060408385031215613da857600080fd5b6000613db685828601613bd3565b9250506020613dc785828601613be8565b9150509250929050565b60008060408385031215613de457600080fd5b6000613df285828601613bd3565b9250506020613e0385828601613c51565b9150509250929050565b600060208284031215613e1f57600080fd5b6000613e2d84828501613bfd565b91505092915050565b600060208284031215613e4857600080fd5b6000613e5684828501613c12565b91505092915050565b600060208284031215613e7157600080fd5b6000613e7f84828501613c51565b91505092915050565b6000613e9483836145b2565b905092915050565b6000613ea88383614706565b60208301905092915050565b613ebd81614ef2565b82525050565b6000613ece82614d2c565b613ed88185614d72565b935083602082028501613eea85614d0c565b8060005b85811015613f265784840389528151613f078582613e88565b9450613f1283614d58565b925060208a01995050600181019050613eee565b50829750879550505050505092915050565b6000613f4382614d37565b613f4d8185614d83565b9350613f5883614d1c565b8060005b83811015613f89578151613f708882613e9c565b9750613f7b83614d65565b925050600181019050613f5c565b5085935050505092915050565b613f9f81614f04565b82525050565b6000613fb082614d42565b613fba8185614d94565b9350613fca818560208601614f75565b613fd381615141565b840191505092915050565b6000613fe982614d42565b613ff38185614da5565b9350614003818560208601614f75565b80840191505092915050565b600061401a82614d4d565b6140248185614db0565b9350614034818560208601614f75565b61403d81615141565b840191505092915050565b600061405382614d4d565b61405d8185614dc1565b935061406d818560208601614f75565b61407681615141565b840191505092915050565b600061408c82614d4d565b6140968185614dd2565b93506140a6818560208601614f75565b80840191505092915050565b60006140bf602783614dd2565b91506140ca82615152565b602782019050919050565b60006140e2600b83614dd2565b91506140ed826151a1565b600b82019050919050565b6000614105602283614dc1565b9150614110826151ca565b604082019050919050565b6000614128600583614dd2565b915061413382615219565b600582019050919050565b600061414b602b83614dc1565b915061415682615242565b604082019050919050565b600061416e603283614dc1565b915061417982615291565b604082019050919050565b6000614191602883614dc1565b915061419c826152e0565b604082019050919050565b60006141b4601c83614dc1565b91506141bf8261532f565b602082019050919050565b60006141d7603283614dd2565b91506141e282615358565b603282019050919050565b60006141fa600e83614dd2565b9150614205826153a7565b600e82019050919050565b600061421d602483614dc1565b9150614228826153d0565b604082019050919050565b6000614240601983614dc1565b915061424b8261541f565b602082019050919050565b6000614263602683614dc1565b915061426e82615448565b604082019050919050565b6000614286602c83614dc1565b915061429182615497565b604082019050919050565b60006142a9603883614dc1565b91506142b4826154e6565b604082019050919050565b60006142cc602a83614dc1565b91506142d782615535565b604082019050919050565b60006142ef602983614dc1565b91506142fa82615584565b604082019050919050565b6000614312602d83614dc1565b915061431d826155d3565b604082019050919050565b6000614335602083614dc1565b915061434082615622565b602082019050919050565b6000614358602c83614dc1565b91506143638261564b565b604082019050919050565b600061437b602983614dc1565b91506143868261569a565b604082019050919050565b600061439e600a83614dd2565b91506143a9826156e9565b600a82019050919050565b60006143c1602183614dc1565b91506143cc82615712565b604082019050919050565b60006143e4601d83614dd2565b91506143ef82615761565b601d82019050919050565b6000614407601383614dc1565b91506144128261578a565b602082019050919050565b600061442a600083614da5565b9150614435826157b3565b600082019050919050565b600061444d601083614dc1565b9150614458826157b6565b602082019050919050565b6000614470603183614dc1565b915061447b826157df565b604082019050919050565b6000614493601d83614dc1565b915061449e8261582e565b602082019050919050565b60006144b6602c83614dc1565b91506144c182615857565b604082019050919050565b60006144d9603d83614dd2565b91506144e4826158a6565b603d82019050919050565b60006144fc600d83614dc1565b9150614507826158f5565b602082019050919050565b600061451f602d83614dd2565b915061452a8261591e565b602d82019050919050565b600060a0830160008301518482036000860152614552828261400f565b9150506020830151848203602086015261456c828261400f565b91505060408301516145816040860182614706565b5060608301516145946060860182614706565b5060808301516145a76080860182614706565b508091505092915050565b600060e0830160008301516145ca6000860182614706565b50602083015184820360208601526145e2828261400f565b915050604083015184820360408601526145fc828261400f565b91505060608301516146116060860182614706565b5060808301516146246080860182614706565b5060a083015161463760a0860182614706565b5060c083015184820360c086015261464f828261400f565b9150508091505092915050565b600060e0830160008301516146746000860182614706565b506020830151848203602086015261468c828261400f565b915050604083015184820360408601526146a6828261400f565b91505060608301516146bb6060860182614706565b5060808301516146ce6080860182614706565b5060a08301516146e160a0860182614706565b5060c083015184820360c08601526146f9828261400f565b9150508091505092915050565b61470f81614f5c565b82525050565b61471e81614f5c565b82525050565b60006147308284613fde565b915081905092915050565b600061474682614391565b9150614752828a614081565b915061475d826140d5565b91506147698289614081565b9150614774826141ca565b91506147808288614081565b915061478b826144cc565b91506147978287614081565b91506147a2826141ed565b91506147ae8286614081565b91506147b982614512565b91506147c58285614081565b91506147d0826140b2565b91506147dc8284614081565b91506147e78261411b565b915081905098975050505050505050565b6000614803826143d7565b915061480f8284614081565b915081905092915050565b60006148258261441d565b9150819050919050565b60006020820190506148446000830184613eb4565b92915050565b600060808201905061485f6000830187613eb4565b61486c6020830186613eb4565b6148796040830185614715565b818103606083015261488b8184613fa5565b905095945050505050565b60006060820190506148ab6000830186613eb4565b6148b86020830185614715565b6148c56040830184614715565b949350505050565b600060208201905081810360008301526148e78184613ec3565b905092915050565b600060208201905081810360008301526149098184613f38565b905092915050565b60006020820190506149266000830184613f96565b92915050565b600060208201905081810360008301526149468184614048565b905092915050565b60006020820190508181036000830152614967816140f8565b9050919050565b600060208201905081810360008301526149878161413e565b9050919050565b600060208201905081810360008301526149a781614161565b9050919050565b600060208201905081810360008301526149c781614184565b9050919050565b600060208201905081810360008301526149e7816141a7565b9050919050565b60006020820190508181036000830152614a0781614210565b9050919050565b60006020820190508181036000830152614a2781614233565b9050919050565b60006020820190508181036000830152614a4781614256565b9050919050565b60006020820190508181036000830152614a6781614279565b9050919050565b60006020820190508181036000830152614a878161429c565b9050919050565b60006020820190508181036000830152614aa7816142bf565b9050919050565b60006020820190508181036000830152614ac7816142e2565b9050919050565b60006020820190508181036000830152614ae781614305565b9050919050565b60006020820190508181036000830152614b0781614328565b9050919050565b60006020820190508181036000830152614b278161434b565b9050919050565b60006020820190508181036000830152614b478161436e565b9050919050565b60006020820190508181036000830152614b67816143b4565b9050919050565b60006020820190508181036000830152614b87816143fa565b9050919050565b60006020820190508181036000830152614ba781614440565b9050919050565b60006020820190508181036000830152614bc781614463565b9050919050565b60006020820190508181036000830152614be781614486565b9050919050565b60006020820190508181036000830152614c07816144a9565b9050919050565b60006020820190508181036000830152614c27816144ef565b9050919050565b60006020820190508181036000830152614c488184614535565b905092915050565b60006020820190508181036000830152614c6a818461465c565b905092915050565b6000602082019050614c876000830184614715565b92915050565b6000604082019050614ca26000830185614715565b614caf6020830184614715565b9392505050565b6000614cc0614cd1565b9050614ccc8282614fda565b919050565b6000604051905090565b600067ffffffffffffffff821115614cf657614cf5615112565b5b614cff82615141565b9050602081019050919050565b6000819050602082019050919050565b6000819050602082019050919050565b600081519050919050565b600081519050919050565b600081519050919050565b600081519050919050565b6000602082019050919050565b6000602082019050919050565b600082825260208201905092915050565b600082825260208201905092915050565b600082825260208201905092915050565b600081905092915050565b600082825260208201905092915050565b600082825260208201905092915050565b600081905092915050565b6000614de882614f5c565b9150614df383614f5c565b9250827fffffffffffffffffffffffffffffffffffffffffffffffffffffffffffffffff03821115614e2857614e27615085565b5b828201905092915050565b6000614e3e82614f5c565b9150614e4983614f5c565b925082614e5957614e586150b4565b5b828204905092915050565b6000614e6f82614f5c565b9150614e7a83614f5c565b9250817fffffffffffffffffffffffffffffffffffffffffffffffffffffffffffffffff0483118215151615614eb357614eb2615085565b5b828202905092915050565b6000614ec982614f5c565b9150614ed483614f5c565b925082821015614ee757614ee6615085565b5b828203905092915050565b6000614efd82614f3c565b9050919050565b60008115159050919050565b60007fffffffff0000000000000000000000000000000000000000000000000000000082169050919050565b600073ffffffffffffffffffffffffffffffffffffffff82169050919050565b6000819050919050565b82818337600083830152505050565b60005b83811015614f93578082015181840152602081019050614f78565b83811115614fa2576000848401525b50505050565b60006002820490506001821680614fc057607f821691505b60208210811415614fd457614fd36150e3565b5b50919050565b614fe382615141565b810181811067ffffffffffffffff8211171561500257615001615112565b5b80604052505050565b600061501682614f5c565b91507fffffffffffffffffffffffffffffffffffffffffffffffffffffffffffffffff82141561504957615048615085565b5b600182019050919050565b600061505f82614f5c565b915061506a83614f5c565b92508261507a576150796150b4565b5b828206905092915050565b7f4e487b7100000000000000000000000000000000000000000000000000000000600052601160045260246000fd5b7f4e487b7100000000000000000000000000000000000000000000000000000000600052601260045260246000fd5b7f4e487b7100000000000000000000000000000000000000000000000000000000600052602260045260246000fd5b7f4e487b7100000000000000000000000000000000000000000000000000000000600052604160045260246000fd5b6000601f19601f8301169050919050565b7f7d2c207b202274726169745f74797065223a20224c6576656c73222c2022766160008201527f6c7565223a202200000000000000000000000000000000000000000000000000602082015250565b7f202d2d204e465420233a20000000000000000000000000000000000000000000600082015250565b7f4c69624469616d6f6e643a204d75737420626520636f6e7472616374206f776e60008201527f6572000000000000000000000000000000000000000000000000000000000000602082015250565b7f227d205d7d000000000000000000000000000000000000000000000000000000600082015250565b7f455243373231456e756d657261626c653a206f776e657220696e646578206f7560008201527f74206f6620626f756e6473000000000000000000000000000000000000000000602082015250565b7f4552433732313a207472616e7366657220746f206e6f6e20455243373231526560008201527f63656976657220696d706c656d656e7465720000000000000000000000000000602082015250565b7f4572726f723a20626f7373206d757374206861766520485020746f206174746160008201527f636b20626f73732e000000000000000000000000000000000000000000000000602082015250565b7f4552433732313a20746f6b656e20616c7265616479206d696e74656400000000600082015250565b7f222c20226465736372697074696f6e223a2022416e2065706963204e4654222c60008201527f2022696d616765223a2022697066733a2f2f0000000000000000000000000000602082015250565b7f2c20226d61785f76616c7565223a000000000000000000000000000000000000600082015250565b7f4552433732313a207472616e7366657220746f20746865207a65726f2061646460008201527f7265737300000000000000000000000000000000000000000000000000000000602082015250565b7f4552433732313a20617070726f766520746f2063616c6c657200000000000000600082015250565b7f416464726573733a20696e73756666696369656e742062616c616e636520666f60008201527f722063616c6c0000000000000000000000000000000000000000000000000000602082015250565b7f4552433732313a206f70657261746f7220717565727920666f72206e6f6e657860008201527f697374656e7420746f6b656e0000000000000000000000000000000000000000602082015250565b7f4552433732313a20617070726f76652063616c6c6572206973206e6f74206f7760008201527f6e6572206e6f7220617070726f76656420666f7220616c6c0000000000000000602082015250565b7f4552433732313a2062616c616e636520717565727920666f7220746865207a6560008201527f726f206164647265737300000000000000000000000000000000000000000000602082015250565b7f4552433732313a206f776e657220717565727920666f72206e6f6e657869737460008201527f656e7420746f6b656e0000000000000000000000000000000000000000000000602082015250565b7f4572726f723a20636861726163746572206d757374206861766520485020746f60008201527f2061747461636b20626f73732e00000000000000000000000000000000000000602082015250565b7f4552433732313a206d696e7420746f20746865207a65726f2061646472657373600082015250565b7f4552433732313a20617070726f76656420717565727920666f72206e6f6e657860008201527f697374656e7420746f6b656e0000000000000000000000000000000000000000602082015250565b7f4552433732313a207472616e73666572206f6620746f6b656e2074686174206960008201527f73206e6f74206f776e0000000000000000000000000000000000000000000000602082015250565b7f7b226e616d65223a202200000000000000000000000000000000000000000000600082015250565b7f4552433732313a20617070726f76616c20746f2063757272656e74206f776e6560008201527f7200000000000000000000000000000000000000000000000000000000000000602082015250565b7f646174613a6170706c69636174696f6e2f6a736f6e3b6261736536342c000000600082015250565b7f4e465420416c72656164792052656e7465642e00000000000000000000000000600082015250565b50565b7f5472616e73666572206661696c65642e00000000000000000000000000000000600082015250565b7f4552433732313a207472616e736665722063616c6c6572206973206e6f74206f60008201527f776e6572206e6f7220617070726f766564000000000000000000000000000000602082015250565b7f416464726573733a2063616c6c20746f206e6f6e2d636f6e7472616374000000600082015250565b7f455243373231456e756d657261626c653a20676c6f62616c20696e646578206f60008201527f7574206f6620626f756e64730000000000000000000000000000000000000000602082015250565b7f222c202261747472696275746573223a205b207b202274726169745f7479706560008201527f223a20224865616c746820506f696e7473222c202276616c7565223a20000000602082015250565b7f4e6f74204e4654204f776e657200000000000000000000000000000000000000600082015250565b7f7d2c207b202274726169745f74797065223a202241747461636b2044616d616760008201527f65222c202276616c7565223a2000000000000000000000000000000000000000602082015250565b61597681614ef2565b811461598157600080fd5b50565b61598d81614f04565b811461599857600080fd5b50565b6159a481614f10565b81146159af57600080fd5b50565b6159bb81614f5c565b81146159c657600080fd5b5056fe4552433732313a207472616e7366657220746f206e6f6e20455243373231526563656976657220696d706c656d656e7465724142434445464748494a4b4c4d4e4f505152535455565758595a6162636465666768696a6b6c6d6e6f707172737475767778797a303132333435363738392b2fa26469706673582212204fa727da97c64d4dabd8553ff1b69a438294bd3fdaa3bf0fb86dd99f3c73eea264736f6c63430008010033",
  "linkReferences": {},
  "deployedLinkReferences": {}
}