{
  "_format": "hh-sol-artifact-1",
  "contractName": "STEELOFacet",
  "sourceName": "contracts/facets/STEELOFacet.sol",
  "abi": [
    {
      "inputs": [],
      "name": "getSteeloName",
      "outputs": [
        {
          "internalType": "string",
          "name": "",
          "type": "string"
        }
      ],
      "stateMutability": "view",
      "type": "function"
    },
    {
      "inputs": [],
      "name": "getSteeloSymbol",
      "outputs": [
        {
          "internalType": "string",
          "name": "",
          "type": "string"
        }
      ],
      "stateMutability": "view",
      "type": "function"
    },
    {
      "inputs": [],
      "name": "getSteeloTotalSupply",
      "outputs": [
        {
          "internalType": "uint256",
          "name": "",
          "type": "uint256"
        }
      ],
      "stateMutability": "view",
      "type": "function"
    },
    {
      "inputs": [],
      "name": "steeloInitiate",
      "outputs": [
        {
          "internalType": "bool",
          "name": "success",
          "type": "bool"
        }
      ],
      "stateMutability": "nonpayable",
      "type": "function"
    }
  ],
  "bytecode": "0x608060405234801561001057600080fd5b5061052a806100206000396000f3fe608060405234801561001057600080fd5b506004361061004c5760003560e01c80630cef6a841461005157806371e42df51461006f5780639fdf80111461008d578063c18d90b0146100ab575b600080fd5b6100596100c9565b60405161006691906103c5565b60405180910390f35b6100776100db565b60405161008491906103e0565b60405180910390f35b610095610170565b6040516100a29190610402565b60405180910390f35b6100b361017c565b6040516100c091906103e0565b60405180910390f35b60006100d433610210565b6001905090565b6060600060010180546100ed90610482565b80601f016020809104026020016040519081016040528092919081815260200182805461011990610482565b80156101665780601f1061013b57610100808354040283529160200191610166565b820191906000526020600020905b81548152906001019060200180831161014957829003601f168201915b5050505050905090565b60008060020154905090565b606060008001805461018d90610482565b80601f01602080910402602001604051908101604052809291908181526020018280546101b990610482565b80156102065780601f106101db57610100808354040283529160200191610206565b820191906000526020600020905b8154815290600101906020018083116101e957829003601f168201915b5050505050905090565b600061021a6102c6565b90506040518060400160405280600681526020017f537465656c6f00000000000000000000000000000000000000000000000000008152508160000190805190602001906102699291906102cb565b506040518060400160405280600381526020017f53544800000000000000000000000000000000000000000000000000000000008152508160010190805190602001906102b79291906102cb565b50606481600201819055505050565b600090565b8280546102d790610482565b90600052602060002090601f0160209004810192826102f95760008555610340565b82601f1061031257805160ff1916838001178555610340565b82800160010185558215610340579182015b8281111561033f578251825591602001919060010190610324565b5b50905061034d9190610351565b5090565b5b8082111561036a576000816000905550600101610352565b5090565b61037781610439565b82525050565b60006103888261041d565b6103928185610428565b93506103a281856020860161044f565b6103ab816104e3565b840191505092915050565b6103bf81610445565b82525050565b60006020820190506103da600083018461036e565b92915050565b600060208201905081810360008301526103fa818461037d565b905092915050565b600060208201905061041760008301846103b6565b92915050565b600081519050919050565b600082825260208201905092915050565b60008115159050919050565b6000819050919050565b60005b8381101561046d578082015181840152602081019050610452565b8381111561047c576000848401525b50505050565b6000600282049050600182168061049a57607f821691505b602082108114156104ae576104ad6104b4565b5b50919050565b7f4e487b7100000000000000000000000000000000000000000000000000000000600052602260045260246000fd5b6000601f19601f830116905091905056fea2646970667358221220756abe0749c2c72ce966ef27add5dff6e4fda5b5ab5e1e80cec883ad6593058d64736f6c63430008010033",
  "linkReferences": {},
  "deployedLinkReferences": {}
}